{
  "_format": "hh-sol-artifact-1",
  "contractName": "Token",
  "sourceName": "contracts/Token/Token.sol",
  "abi": [
    {
      "inputs": [],
      "stateMutability": "nonpayable",
      "type": "constructor"
    },
    {
      "anonymous": false,
      "inputs": [
        {
          "indexed": true,
          "internalType": "address",
          "name": "account",
          "type": "address"
        },
        {
          "indexed": true,
          "internalType": "address",
          "name": "operator",
          "type": "address"
        },
        {
          "indexed": false,
          "internalType": "bool",
          "name": "approved",
          "type": "bool"
        }
      ],
      "name": "ApprovalForAll",
      "type": "event"
    },
    {
      "anonymous": false,
      "inputs": [
        {
          "indexed": true,
          "internalType": "address",
          "name": "previousOwner",
          "type": "address"
        },
        {
          "indexed": true,
          "internalType": "address",
          "name": "newOwner",
          "type": "address"
        }
      ],
      "name": "OwnershipTransferred",
      "type": "event"
    },
    {
      "anonymous": false,
      "inputs": [
        {
          "indexed": false,
          "internalType": "address",
          "name": "account",
          "type": "address"
        }
      ],
      "name": "Paused",
      "type": "event"
    },
    {
      "anonymous": false,
      "inputs": [
        {
          "indexed": true,
          "internalType": "address",
          "name": "operator",
          "type": "address"
        },
        {
          "indexed": true,
          "internalType": "address",
          "name": "from",
          "type": "address"
        },
        {
          "indexed": true,
          "internalType": "address",
          "name": "to",
          "type": "address"
        },
        {
          "indexed": false,
          "internalType": "uint256[]",
          "name": "ids",
          "type": "uint256[]"
        },
        {
          "indexed": false,
          "internalType": "uint256[]",
          "name": "values",
          "type": "uint256[]"
        }
      ],
      "name": "TransferBatch",
      "type": "event"
    },
    {
      "anonymous": false,
      "inputs": [
        {
          "indexed": true,
          "internalType": "address",
          "name": "operator",
          "type": "address"
        },
        {
          "indexed": true,
          "internalType": "address",
          "name": "from",
          "type": "address"
        },
        {
          "indexed": true,
          "internalType": "address",
          "name": "to",
          "type": "address"
        },
        {
          "indexed": false,
          "internalType": "uint256",
          "name": "id",
          "type": "uint256"
        },
        {
          "indexed": false,
          "internalType": "uint256",
          "name": "value",
          "type": "uint256"
        }
      ],
      "name": "TransferSingle",
      "type": "event"
    },
    {
      "anonymous": false,
      "inputs": [
        {
          "indexed": false,
          "internalType": "string",
          "name": "value",
          "type": "string"
        },
        {
          "indexed": true,
          "internalType": "uint256",
          "name": "id",
          "type": "uint256"
        }
      ],
      "name": "URI",
      "type": "event"
    },
    {
      "anonymous": false,
      "inputs": [
        {
          "indexed": false,
          "internalType": "address",
          "name": "account",
          "type": "address"
        }
      ],
      "name": "Unpaused",
      "type": "event"
    },
    {
      "inputs": [
        {
          "internalType": "address",
          "name": "account",
          "type": "address"
        },
        {
          "internalType": "uint256",
          "name": "id",
          "type": "uint256"
        }
      ],
      "name": "balanceOf",
      "outputs": [
        {
          "internalType": "uint256",
          "name": "",
          "type": "uint256"
        }
      ],
      "stateMutability": "view",
      "type": "function"
    },
    {
      "inputs": [
        {
          "internalType": "address[]",
          "name": "accounts",
          "type": "address[]"
        },
        {
          "internalType": "uint256[]",
          "name": "ids",
          "type": "uint256[]"
        }
      ],
      "name": "balanceOfBatch",
      "outputs": [
        {
          "internalType": "uint256[]",
          "name": "",
          "type": "uint256[]"
        }
      ],
      "stateMutability": "view",
      "type": "function"
    },
    {
      "inputs": [
        {
          "internalType": "address",
          "name": "account",
          "type": "address"
        },
        {
          "internalType": "uint256",
          "name": "id",
          "type": "uint256"
        },
        {
          "internalType": "uint256",
          "name": "value",
          "type": "uint256"
        }
      ],
      "name": "burn",
      "outputs": [],
      "stateMutability": "nonpayable",
      "type": "function"
    },
    {
      "inputs": [
        {
          "internalType": "address",
          "name": "account",
          "type": "address"
        },
        {
          "internalType": "uint256[]",
          "name": "ids",
          "type": "uint256[]"
        },
        {
          "internalType": "uint256[]",
          "name": "values",
          "type": "uint256[]"
        }
      ],
      "name": "burnBatch",
      "outputs": [],
      "stateMutability": "nonpayable",
      "type": "function"
    },
    {
      "inputs": [
        {
          "internalType": "address",
          "name": "account",
          "type": "address"
        },
        {
          "internalType": "address",
          "name": "operator",
          "type": "address"
        }
      ],
      "name": "isApprovedForAll",
      "outputs": [
        {
          "internalType": "bool",
          "name": "",
          "type": "bool"
        }
      ],
      "stateMutability": "view",
      "type": "function"
    },
    {
      "inputs": [
        {
          "internalType": "address",
          "name": "account",
          "type": "address"
        },
        {
          "internalType": "uint256",
          "name": "id",
          "type": "uint256"
        },
        {
          "internalType": "uint256",
          "name": "amount",
          "type": "uint256"
        }
      ],
      "name": "mint",
      "outputs": [],
      "stateMutability": "nonpayable",
      "type": "function"
    },
    {
      "inputs": [
        {
          "internalType": "address",
          "name": "to",
          "type": "address"
        },
        {
          "internalType": "uint256[]",
          "name": "ids",
          "type": "uint256[]"
        },
        {
          "internalType": "uint256[]",
          "name": "amounts",
          "type": "uint256[]"
        }
      ],
      "name": "mintBatch",
      "outputs": [],
      "stateMutability": "nonpayable",
      "type": "function"
    },
    {
      "inputs": [],
      "name": "owner",
      "outputs": [
        {
          "internalType": "address",
          "name": "",
          "type": "address"
        }
      ],
      "stateMutability": "view",
      "type": "function"
    },
    {
      "inputs": [],
      "name": "pause",
      "outputs": [],
      "stateMutability": "nonpayable",
      "type": "function"
    },
    {
      "inputs": [],
      "name": "paused",
      "outputs": [
        {
          "internalType": "bool",
          "name": "",
          "type": "bool"
        }
      ],
      "stateMutability": "view",
      "type": "function"
    },
    {
      "inputs": [],
      "name": "renounceOwnership",
      "outputs": [],
      "stateMutability": "nonpayable",
      "type": "function"
    },
    {
      "inputs": [
        {
          "internalType": "address",
          "name": "from",
          "type": "address"
        },
        {
          "internalType": "address",
          "name": "to",
          "type": "address"
        },
        {
          "internalType": "uint256[]",
          "name": "ids",
          "type": "uint256[]"
        },
        {
          "internalType": "uint256[]",
          "name": "amounts",
          "type": "uint256[]"
        },
        {
          "internalType": "bytes",
          "name": "data",
          "type": "bytes"
        }
      ],
      "name": "safeBatchTransferFrom",
      "outputs": [],
      "stateMutability": "nonpayable",
      "type": "function"
    },
    {
      "inputs": [
        {
          "internalType": "address",
          "name": "from",
          "type": "address"
        },
        {
          "internalType": "address",
          "name": "to",
          "type": "address"
        },
        {
          "internalType": "uint256",
          "name": "id",
          "type": "uint256"
        },
        {
          "internalType": "uint256",
          "name": "amount",
          "type": "uint256"
        },
        {
          "internalType": "bytes",
          "name": "data",
          "type": "bytes"
        }
      ],
      "name": "safeTransferFrom",
      "outputs": [],
      "stateMutability": "nonpayable",
      "type": "function"
    },
    {
      "inputs": [
        {
          "internalType": "address",
          "name": "operator",
          "type": "address"
        },
        {
          "internalType": "bool",
          "name": "approved",
          "type": "bool"
        }
      ],
      "name": "setApprovalForAll",
      "outputs": [],
      "stateMutability": "nonpayable",
      "type": "function"
    },
    {
      "inputs": [
        {
          "internalType": "string",
          "name": "newuri",
          "type": "string"
        }
      ],
      "name": "setURI",
      "outputs": [],
      "stateMutability": "nonpayable",
      "type": "function"
    },
    {
      "inputs": [
        {
          "internalType": "bytes4",
          "name": "interfaceId",
          "type": "bytes4"
        }
      ],
      "name": "supportsInterface",
      "outputs": [
        {
          "internalType": "bool",
          "name": "",
          "type": "bool"
        }
      ],
      "stateMutability": "view",
      "type": "function"
    },
    {
      "inputs": [
        {
          "internalType": "address",
          "name": "newOwner",
          "type": "address"
        }
      ],
      "name": "transferOwnership",
      "outputs": [],
      "stateMutability": "nonpayable",
      "type": "function"
    },
    {
      "inputs": [],
      "name": "unpause",
      "outputs": [],
      "stateMutability": "nonpayable",
      "type": "function"
    },
    {
      "inputs": [
        {
          "internalType": "uint256",
          "name": "tokenId",
          "type": "uint256"
        }
      ],
      "name": "uri",
      "outputs": [
        {
          "internalType": "string",
          "name": "",
          "type": "string"
        }
      ],
      "stateMutability": "view",
      "type": "function"
    }
  ],
  "bytecode": "0x60806040523480156200001157600080fd5b506040518060200160405280600081525062000033816200007560201b60201c565b5062000054620000486200008a60201b60201c565b6200009260201b60201c565b6000600360146101000a81548160ff021916908315150217905550620004b9565b8060029081620000869190620003d2565b5050565b600033905090565b6000600360009054906101000a900473ffffffffffffffffffffffffffffffffffffffff16905081600360006101000a81548173ffffffffffffffffffffffffffffffffffffffff021916908373ffffffffffffffffffffffffffffffffffffffff1602179055508173ffffffffffffffffffffffffffffffffffffffff168173ffffffffffffffffffffffffffffffffffffffff167f8be0079c531659141344cd1fd0a4f28419497f9722a3daafe3b4186f6b6457e060405160405180910390a35050565b600081519050919050565b7f4e487b7100000000000000000000000000000000000000000000000000000000600052604160045260246000fd5b7f4e487b7100000000000000000000000000000000000000000000000000000000600052602260045260246000fd5b60006002820490506001821680620001da57607f821691505b602082108103620001f057620001ef62000192565b5b50919050565b60008190508160005260206000209050919050565b60006020601f8301049050919050565b600082821b905092915050565b6000600883026200025a7fffffffffffffffffffffffffffffffffffffffffffffffffffffffffffffffff826200021b565b6200026686836200021b565b95508019841693508086168417925050509392505050565b6000819050919050565b6000819050919050565b6000620002b3620002ad620002a7846200027e565b62000288565b6200027e565b9050919050565b6000819050919050565b620002cf8362000292565b620002e7620002de82620002ba565b84845462000228565b825550505050565b600090565b620002fe620002ef565b6200030b818484620002c4565b505050565b5b81811015620003335762000327600082620002f4565b60018101905062000311565b5050565b601f82111562000382576200034c81620001f6565b62000357846200020b565b8101602085101562000367578190505b6200037f62000376856200020b565b83018262000310565b50505b505050565b600082821c905092915050565b6000620003a76000198460080262000387565b1980831691505092915050565b6000620003c2838362000394565b9150826002028217905092915050565b620003dd8262000158565b67ffffffffffffffff811115620003f957620003f862000163565b5b620004058254620001c1565b6200041282828562000337565b600060209050601f8311600181146200044a576000841562000435578287015190505b620004418582620003b4565b865550620004b1565b601f1984166200045a86620001f6565b60005b8281101562000484578489015182556001820191506020850194506020810190506200045d565b86831015620004a45784890151620004a0601f89168262000394565b8355505b6001600288020188555050505b505050505050565b613cf780620004c96000396000f3fe608060405234801561001057600080fd5b50600436106101205760003560e01c80636b20c454116100ad578063d81d0a1511610071578063d81d0a15146102cb578063e985e9c5146102e7578063f242432a14610317578063f2fde38b14610333578063f5298aca1461034f57610120565b80636b20c45414610261578063715018a61461027d5780638456cb59146102875780638da5cb5b14610291578063a22cb465146102af57610120565b8063156e29f6116100f4578063156e29f6146101d15780632eb2c2d6146101ed5780633f4ba83a146102095780634e1273f4146102135780635c975abb1461024357610120565b8062fdd58e1461012557806301ffc9a71461015557806302fe5305146101855780630e89341c146101a1575b600080fd5b61013f600480360381019061013a9190612396565b61036b565b60405161014c91906123e5565b60405180910390f35b61016f600480360381019061016a9190612458565b610433565b60405161017c91906124a0565b60405180910390f35b61019f600480360381019061019a9190612601565b610515565b005b6101bb60048036038101906101b6919061264a565b610529565b6040516101c891906126f6565b60405180910390f35b6101eb60048036038101906101e69190612718565b6105ce565b005b610207600480360381019061020291906128d4565b6105f6565b005b610211610697565b005b61022d60048036038101906102289190612a66565b6106a9565b60405161023a9190612b9c565b60405180910390f35b61024b6107c2565b60405161025891906124a0565b60405180910390f35b61027b60048036038101906102769190612bbe565b6107d9565b005b610285610876565b005b61028f61088a565b005b61029961089c565b6040516102a69190612c58565b60405180910390f35b6102c960048036038101906102c49190612c9f565b6108c6565b005b6102e560048036038101906102e09190612bbe565b6108dc565b005b61030160048036038101906102fc9190612cdf565b610904565b60405161030e91906124a0565b60405180910390f35b610331600480360381019061032c9190612d1f565b610998565b005b61034d60048036038101906103489190612db6565b610a39565b005b61036960048036038101906103649190612718565b610abc565b005b60008073ffffffffffffffffffffffffffffffffffffffff168373ffffffffffffffffffffffffffffffffffffffff16036103db576040517f08c379a00000000000000000000000000000000000000000000000000000000081526004016103d290612e55565b60405180910390fd5b60008083815260200190815260200160002060008473ffffffffffffffffffffffffffffffffffffffff1673ffffffffffffffffffffffffffffffffffffffff16815260200190815260200160002054905092915050565b60007fd9b67a26000000000000000000000000000000000000000000000000000000007bffffffffffffffffffffffffffffffffffffffffffffffffffffffff1916827bffffffffffffffffffffffffffffffffffffffffffffffffffffffff191614806104fe57507f0e89341c000000000000000000000000000000000000000000000000000000007bffffffffffffffffffffffffffffffffffffffffffffffffffffffff1916827bffffffffffffffffffffffffffffffffffffffffffffffffffffffff1916145b8061050e575061050d82610b59565b5b9050919050565b61051d610bc3565b61052681610c41565b50565b606060046000838152602001908152602001600020805461054990612ea4565b80601f016020809104026020016040519081016040528092919081815260200182805461057590612ea4565b80156105c25780601f10610597576101008083540402835291602001916105c2565b820191906000526020600020905b8154815290600101906020018083116105a557829003601f168201915b50505050509050919050565b6105d6610bc3565b6105f183838360405180602001604052806000815250610c54565b505050565b6105fe610e04565b73ffffffffffffffffffffffffffffffffffffffff168573ffffffffffffffffffffffffffffffffffffffff16148061064457506106438561063e610e04565b610904565b5b610683576040517f08c379a000000000000000000000000000000000000000000000000000000000815260040161067a90612f47565b60405180910390fd5b6106908585858585610e0c565b5050505050565b61069f610bc3565b6106a761112d565b565b606081518351146106ef576040517f08c379a00000000000000000000000000000000000000000000000000000000081526004016106e690612fd9565b60405180910390fd5b6000835167ffffffffffffffff81111561070c5761070b6124d6565b5b60405190808252806020026020018201604052801561073a5781602001602082028036833780820191505090505b50905060005b84518110156107b75761078785828151811061075f5761075e612ff9565b5b602002602001015185838151811061077a57610779612ff9565b5b602002602001015161036b565b82828151811061079a57610799612ff9565b5b602002602001018181525050806107b090613057565b9050610740565b508091505092915050565b6000600360149054906101000a900460ff16905090565b6107e1610e04565b73ffffffffffffffffffffffffffffffffffffffff168373ffffffffffffffffffffffffffffffffffffffff161480610827575061082683610821610e04565b610904565b5b610866576040517f08c379a000000000000000000000000000000000000000000000000000000000815260040161085d90612f47565b60405180910390fd5b610871838383611190565b505050565b61087e610bc3565b610888600061145e565b565b610892610bc3565b61089a611524565b565b6000600360009054906101000a900473ffffffffffffffffffffffffffffffffffffffff16905090565b6108d86108d1610e04565b8383611587565b5050565b6108e4610bc3565b6108ff838383604051806020016040528060008152506116f3565b505050565b6000600160008473ffffffffffffffffffffffffffffffffffffffff1673ffffffffffffffffffffffffffffffffffffffff16815260200190815260200160002060008373ffffffffffffffffffffffffffffffffffffffff1673ffffffffffffffffffffffffffffffffffffffff16815260200190815260200160002060009054906101000a900460ff16905092915050565b6109a0610e04565b73ffffffffffffffffffffffffffffffffffffffff168573ffffffffffffffffffffffffffffffffffffffff1614806109e657506109e5856109e0610e04565b610904565b5b610a25576040517f08c379a0000000000000000000000000000000000000000000000000000000008152600401610a1c90612f47565b60405180910390fd5b610a32858585858561191f565b5050505050565b610a41610bc3565b600073ffffffffffffffffffffffffffffffffffffffff168173ffffffffffffffffffffffffffffffffffffffff1603610ab0576040517f08c379a0000000000000000000000000000000000000000000000000000000008152600401610aa790613111565b60405180910390fd5b610ab98161145e565b50565b610ac4610e04565b73ffffffffffffffffffffffffffffffffffffffff168373ffffffffffffffffffffffffffffffffffffffff161480610b0a5750610b0983610b04610e04565b610904565b5b610b49576040517f08c379a0000000000000000000000000000000000000000000000000000000008152600401610b4090612f47565b60405180910390fd5b610b54838383611bba565b505050565b60007f01ffc9a7000000000000000000000000000000000000000000000000000000007bffffffffffffffffffffffffffffffffffffffffffffffffffffffff1916827bffffffffffffffffffffffffffffffffffffffffffffffffffffffff1916149050919050565b610bcb610e04565b73ffffffffffffffffffffffffffffffffffffffff16610be961089c565b73ffffffffffffffffffffffffffffffffffffffff1614610c3f576040517f08c379a0000000000000000000000000000000000000000000000000000000008152600401610c369061317d565b60405180910390fd5b565b8060029081610c509190613349565b5050565b600073ffffffffffffffffffffffffffffffffffffffff168473ffffffffffffffffffffffffffffffffffffffff1603610cc3576040517f08c379a0000000000000000000000000000000000000000000000000000000008152600401610cba9061348d565b60405180910390fd5b6000610ccd610e04565b90506000610cda85611e00565b90506000610ce785611e00565b9050610cf883600089858589611e7a565b8460008088815260200190815260200160002060008973ffffffffffffffffffffffffffffffffffffffff1673ffffffffffffffffffffffffffffffffffffffff1681526020019081526020016000206000828254610d5791906134ad565b925050819055508673ffffffffffffffffffffffffffffffffffffffff16600073ffffffffffffffffffffffffffffffffffffffff168473ffffffffffffffffffffffffffffffffffffffff167fc3d58168c5ae7397731d063d5bbf3d657854427343f4c083240f7aacaa2d0f628989604051610dd59291906134e1565b60405180910390a4610dec83600089858589611e82565b610dfb83600089898989611e8a565b50505050505050565b600033905090565b8151835114610e50576040517f08c379a0000000000000000000000000000000000000000000000000000000008152600401610e479061357c565b60405180910390fd5b600073ffffffffffffffffffffffffffffffffffffffff168473ffffffffffffffffffffffffffffffffffffffff1603610ebf576040517f08c379a0000000000000000000000000000000000000000000000000000000008152600401610eb69061360e565b60405180910390fd5b6000610ec9610e04565b9050610ed9818787878787611e7a565b60005b845181101561108a576000858281518110610efa57610ef9612ff9565b5b602002602001015190506000858381518110610f1957610f18612ff9565b5b60200260200101519050600080600084815260200190815260200160002060008b73ffffffffffffffffffffffffffffffffffffffff1673ffffffffffffffffffffffffffffffffffffffff16815260200190815260200160002054905081811015610fba576040517f08c379a0000000000000000000000000000000000000000000000000000000008152600401610fb1906136a0565b60405180910390fd5b81810360008085815260200190815260200160002060008c73ffffffffffffffffffffffffffffffffffffffff1673ffffffffffffffffffffffffffffffffffffffff168152602001908152602001600020819055508160008085815260200190815260200160002060008b73ffffffffffffffffffffffffffffffffffffffff1673ffffffffffffffffffffffffffffffffffffffff168152602001908152602001600020600082825461106f91906134ad565b925050819055505050508061108390613057565b9050610edc565b508473ffffffffffffffffffffffffffffffffffffffff168673ffffffffffffffffffffffffffffffffffffffff168273ffffffffffffffffffffffffffffffffffffffff167f4a39dc06d4c0dbc64b70af90fd698a233a518aa5d07e595d983b8c0526c8f7fb87876040516111019291906136c0565b60405180910390a4611117818787878787611e82565b611125818787878787612061565b505050505050565b611135612238565b6000600360146101000a81548160ff0219169083151502179055507f5db9ee0a495bf2e6ff9c91a7834c1ba4fdd244a5e8aa4e537bd38aeae4b073aa611179610e04565b6040516111869190612c58565b60405180910390a1565b600073ffffffffffffffffffffffffffffffffffffffff168373ffffffffffffffffffffffffffffffffffffffff16036111ff576040517f08c379a00000000000000000000000000000000000000000000000000000000081526004016111f690613769565b60405180910390fd5b8051825114611243576040517f08c379a000000000000000000000000000000000000000000000000000000000815260040161123a9061357c565b60405180910390fd5b600061124d610e04565b905061126d81856000868660405180602001604052806000815250611e7a565b60005b83518110156113ba57600084828151811061128e5761128d612ff9565b5b6020026020010151905060008483815181106112ad576112ac612ff9565b5b60200260200101519050600080600084815260200190815260200160002060008973ffffffffffffffffffffffffffffffffffffffff1673ffffffffffffffffffffffffffffffffffffffff1681526020019081526020016000205490508181101561134e576040517f08c379a0000000000000000000000000000000000000000000000000000000008152600401611345906137fb565b60405180910390fd5b81810360008085815260200190815260200160002060008a73ffffffffffffffffffffffffffffffffffffffff1673ffffffffffffffffffffffffffffffffffffffff1681526020019081526020016000208190555050505080806113b290613057565b915050611270565b50600073ffffffffffffffffffffffffffffffffffffffff168473ffffffffffffffffffffffffffffffffffffffff168273ffffffffffffffffffffffffffffffffffffffff167f4a39dc06d4c0dbc64b70af90fd698a233a518aa5d07e595d983b8c0526c8f7fb86866040516114329291906136c0565b60405180910390a461145881856000868660405180602001604052806000815250611e82565b50505050565b6000600360009054906101000a900473ffffffffffffffffffffffffffffffffffffffff16905081600360006101000a81548173ffffffffffffffffffffffffffffffffffffffff021916908373ffffffffffffffffffffffffffffffffffffffff1602179055508173ffffffffffffffffffffffffffffffffffffffff168173ffffffffffffffffffffffffffffffffffffffff167f8be0079c531659141344cd1fd0a4f28419497f9722a3daafe3b4186f6b6457e060405160405180910390a35050565b61152c612281565b6001600360146101000a81548160ff0219169083151502179055507f62e78cea01bee320cd4e420270b5ea74000d11b0c9f74754ebdbfc544b05a258611570610e04565b60405161157d9190612c58565b60405180910390a1565b8173ffffffffffffffffffffffffffffffffffffffff168373ffffffffffffffffffffffffffffffffffffffff16036115f5576040517f08c379a00000000000000000000000000000000000000000000000000000000081526004016115ec9061388d565b60405180910390fd5b80600160008573ffffffffffffffffffffffffffffffffffffffff1673ffffffffffffffffffffffffffffffffffffffff16815260200190815260200160002060008473ffffffffffffffffffffffffffffffffffffffff1673ffffffffffffffffffffffffffffffffffffffff16815260200190815260200160002060006101000a81548160ff0219169083151502179055508173ffffffffffffffffffffffffffffffffffffffff168373ffffffffffffffffffffffffffffffffffffffff167f17307eab39ab6107e8899845ad3d59bd9653f200f220920489ca2b5937696c31836040516116e691906124a0565b60405180910390a3505050565b600073ffffffffffffffffffffffffffffffffffffffff168473ffffffffffffffffffffffffffffffffffffffff1603611762576040517f08c379a00000000000000000000000000000000000000000000000000000000081526004016117599061348d565b60405180910390fd5b81518351146117a6576040517f08c379a000000000000000000000000000000000000000000000000000000000815260040161179d9061357c565b60405180910390fd5b60006117b0610e04565b90506117c181600087878787611e7a565b60005b845181101561187a578381815181106117e0576117df612ff9565b5b60200260200101516000808784815181106117fe576117fd612ff9565b5b6020026020010151815260200190815260200160002060008873ffffffffffffffffffffffffffffffffffffffff1673ffffffffffffffffffffffffffffffffffffffff168152602001908152602001600020600082825461186091906134ad565b92505081905550808061187290613057565b9150506117c4565b508473ffffffffffffffffffffffffffffffffffffffff16600073ffffffffffffffffffffffffffffffffffffffff168273ffffffffffffffffffffffffffffffffffffffff167f4a39dc06d4c0dbc64b70af90fd698a233a518aa5d07e595d983b8c0526c8f7fb87876040516118f29291906136c0565b60405180910390a461190981600087878787611e82565b61191881600087878787612061565b5050505050565b600073ffffffffffffffffffffffffffffffffffffffff168473ffffffffffffffffffffffffffffffffffffffff160361198e576040517f08c379a00000000000000000000000000000000000000000000000000000000081526004016119859061360e565b60405180910390fd5b6000611998610e04565b905060006119a585611e00565b905060006119b285611e00565b90506119c2838989858589611e7a565b600080600088815260200190815260200160002060008a73ffffffffffffffffffffffffffffffffffffffff1673ffffffffffffffffffffffffffffffffffffffff16815260200190815260200160002054905085811015611a59576040517f08c379a0000000000000000000000000000000000000000000000000000000008152600401611a50906136a0565b60405180910390fd5b85810360008089815260200190815260200160002060008b73ffffffffffffffffffffffffffffffffffffffff1673ffffffffffffffffffffffffffffffffffffffff168152602001908152602001600020819055508560008089815260200190815260200160002060008a73ffffffffffffffffffffffffffffffffffffffff1673ffffffffffffffffffffffffffffffffffffffff1681526020019081526020016000206000828254611b0e91906134ad565b925050819055508773ffffffffffffffffffffffffffffffffffffffff168973ffffffffffffffffffffffffffffffffffffffff168573ffffffffffffffffffffffffffffffffffffffff167fc3d58168c5ae7397731d063d5bbf3d657854427343f4c083240f7aacaa2d0f628a8a604051611b8b9291906134e1565b60405180910390a4611ba1848a8a86868a611e82565b611baf848a8a8a8a8a611e8a565b505050505050505050565b600073ffffffffffffffffffffffffffffffffffffffff168373ffffffffffffffffffffffffffffffffffffffff1603611c29576040517f08c379a0000000000000000000000000000000000000000000000000000000008152600401611c2090613769565b60405180910390fd5b6000611c33610e04565b90506000611c4084611e00565b90506000611c4d84611e00565b9050611c6d83876000858560405180602001604052806000815250611e7a565b600080600087815260200190815260200160002060008873ffffffffffffffffffffffffffffffffffffffff1673ffffffffffffffffffffffffffffffffffffffff16815260200190815260200160002054905084811015611d04576040517f08c379a0000000000000000000000000000000000000000000000000000000008152600401611cfb906137fb565b60405180910390fd5b84810360008088815260200190815260200160002060008973ffffffffffffffffffffffffffffffffffffffff1673ffffffffffffffffffffffffffffffffffffffff16815260200190815260200160002081905550600073ffffffffffffffffffffffffffffffffffffffff168773ffffffffffffffffffffffffffffffffffffffff168573ffffffffffffffffffffffffffffffffffffffff167fc3d58168c5ae7397731d063d5bbf3d657854427343f4c083240f7aacaa2d0f628989604051611dd19291906134e1565b60405180910390a4611df784886000868660405180602001604052806000815250611e82565b50505050505050565b60606000600167ffffffffffffffff811115611e1f57611e1e6124d6565b5b604051908082528060200260200182016040528015611e4d5781602001602082028036833780820191505090505b5090508281600081518110611e6557611e64612ff9565b5b60200260200101818152505080915050919050565b505050505050565b505050505050565b611ea98473ffffffffffffffffffffffffffffffffffffffff166122cb565b15612059578373ffffffffffffffffffffffffffffffffffffffff1663f23a6e6187878686866040518663ffffffff1660e01b8152600401611eef959493929190613902565b6020604051808303816000875af1925050508015611f2b57506040513d601f19601f82011682018060405250810190611f289190613971565b60015b611fd057611f376139ab565b806308c379a003611f935750611f4b6139cd565b80611f565750611f95565b806040517f08c379a0000000000000000000000000000000000000000000000000000000008152600401611f8a91906126f6565b60405180910390fd5b505b6040517f08c379a0000000000000000000000000000000000000000000000000000000008152600401611fc790613acf565b60405180910390fd5b63f23a6e6160e01b7bffffffffffffffffffffffffffffffffffffffffffffffffffffffff1916817bffffffffffffffffffffffffffffffffffffffffffffffffffffffff191614612057576040517f08c379a000000000000000000000000000000000000000000000000000000000815260040161204e90613b61565b60405180910390fd5b505b505050505050565b6120808473ffffffffffffffffffffffffffffffffffffffff166122cb565b15612230578373ffffffffffffffffffffffffffffffffffffffff1663bc197c8187878686866040518663ffffffff1660e01b81526004016120c6959493929190613b81565b6020604051808303816000875af192505050801561210257506040513d601f19601f820116820180604052508101906120ff9190613971565b60015b6121a75761210e6139ab565b806308c379a00361216a57506121226139cd565b8061212d575061216c565b806040517f08c379a000000000000000000000000000000000000000000000000000000000815260040161216191906126f6565b60405180910390fd5b505b6040517f08c379a000000000000000000000000000000000000000000000000000000000815260040161219e90613acf565b60405180910390fd5b63bc197c8160e01b7bffffffffffffffffffffffffffffffffffffffffffffffffffffffff1916817bffffffffffffffffffffffffffffffffffffffffffffffffffffffff19161461222e576040517f08c379a000000000000000000000000000000000000000000000000000000000815260040161222590613b61565b60405180910390fd5b505b505050505050565b6122406107c2565b61227f576040517f08c379a000000000000000000000000000000000000000000000000000000000815260040161227690613c35565b60405180910390fd5b565b6122896107c2565b156122c9576040517f08c379a00000000000000000000000000000000000000000000000000000000081526004016122c090613ca1565b60405180910390fd5b565b6000808273ffffffffffffffffffffffffffffffffffffffff163b119050919050565b6000604051905090565b600080fd5b600080fd5b600073ffffffffffffffffffffffffffffffffffffffff82169050919050565b600061232d82612302565b9050919050565b61233d81612322565b811461234857600080fd5b50565b60008135905061235a81612334565b92915050565b6000819050919050565b61237381612360565b811461237e57600080fd5b50565b6000813590506123908161236a565b92915050565b600080604083850312156123ad576123ac6122f8565b5b60006123bb8582860161234b565b92505060206123cc85828601612381565b9150509250929050565b6123df81612360565b82525050565b60006020820190506123fa60008301846123d6565b92915050565b60007fffffffff0000000000000000000000000000000000000000000000000000000082169050919050565b61243581612400565b811461244057600080fd5b50565b6000813590506124528161242c565b92915050565b60006020828403121561246e5761246d6122f8565b5b600061247c84828501612443565b91505092915050565b60008115159050919050565b61249a81612485565b82525050565b60006020820190506124b56000830184612491565b92915050565b600080fd5b600080fd5b6000601f19601f8301169050919050565b7f4e487b7100000000000000000000000000000000000000000000000000000000600052604160045260246000fd5b61250e826124c5565b810181811067ffffffffffffffff8211171561252d5761252c6124d6565b5b80604052505050565b60006125406122ee565b905061254c8282612505565b919050565b600067ffffffffffffffff82111561256c5761256b6124d6565b5b612575826124c5565b9050602081019050919050565b82818337600083830152505050565b60006125a461259f84612551565b612536565b9050828152602081018484840111156125c0576125bf6124c0565b5b6125cb848285612582565b509392505050565b600082601f8301126125e8576125e76124bb565b5b81356125f8848260208601612591565b91505092915050565b600060208284031215612617576126166122f8565b5b600082013567ffffffffffffffff811115612635576126346122fd565b5b612641848285016125d3565b91505092915050565b6000602082840312156126605761265f6122f8565b5b600061266e84828501612381565b91505092915050565b600081519050919050565b600082825260208201905092915050565b60005b838110156126b1578082015181840152602081019050612696565b60008484015250505050565b60006126c882612677565b6126d28185612682565b93506126e2818560208601612693565b6126eb816124c5565b840191505092915050565b6000602082019050818103600083015261271081846126bd565b905092915050565b600080600060608486031215612731576127306122f8565b5b600061273f8682870161234b565b935050602061275086828701612381565b925050604061276186828701612381565b9150509250925092565b600067ffffffffffffffff821115612786576127856124d6565b5b602082029050602081019050919050565b600080fd5b60006127af6127aa8461276b565b612536565b905080838252602082019050602084028301858111156127d2576127d1612797565b5b835b818110156127fb57806127e78882612381565b8452602084019350506020810190506127d4565b5050509392505050565b600082601f83011261281a576128196124bb565b5b813561282a84826020860161279c565b91505092915050565b600067ffffffffffffffff82111561284e5761284d6124d6565b5b612857826124c5565b9050602081019050919050565b600061287761287284612833565b612536565b905082815260208101848484011115612893576128926124c0565b5b61289e848285612582565b509392505050565b600082601f8301126128bb576128ba6124bb565b5b81356128cb848260208601612864565b91505092915050565b600080600080600060a086880312156128f0576128ef6122f8565b5b60006128fe8882890161234b565b955050602061290f8882890161234b565b945050604086013567ffffffffffffffff8111156129305761292f6122fd565b5b61293c88828901612805565b935050606086013567ffffffffffffffff81111561295d5761295c6122fd565b5b61296988828901612805565b925050608086013567ffffffffffffffff81111561298a576129896122fd565b5b612996888289016128a6565b9150509295509295909350565b600067ffffffffffffffff8211156129be576129bd6124d6565b5b602082029050602081019050919050565b60006129e26129dd846129a3565b612536565b90508083825260208201905060208402830185811115612a0557612a04612797565b5b835b81811015612a2e5780612a1a888261234b565b845260208401935050602081019050612a07565b5050509392505050565b600082601f830112612a4d57612a4c6124bb565b5b8135612a5d8482602086016129cf565b91505092915050565b60008060408385031215612a7d57612a7c6122f8565b5b600083013567ffffffffffffffff811115612a9b57612a9a6122fd565b5b612aa785828601612a38565b925050602083013567ffffffffffffffff811115612ac857612ac76122fd565b5b612ad485828601612805565b9150509250929050565b600081519050919050565b600082825260208201905092915050565b6000819050602082019050919050565b612b1381612360565b82525050565b6000612b258383612b0a565b60208301905092915050565b6000602082019050919050565b6000612b4982612ade565b612b538185612ae9565b9350612b5e83612afa565b8060005b83811015612b8f578151612b768882612b19565b9750612b8183612b31565b925050600181019050612b62565b5085935050505092915050565b60006020820190508181036000830152612bb68184612b3e565b905092915050565b600080600060608486031215612bd757612bd66122f8565b5b6000612be58682870161234b565b935050602084013567ffffffffffffffff811115612c0657612c056122fd565b5b612c1286828701612805565b925050604084013567ffffffffffffffff811115612c3357612c326122fd565b5b612c3f86828701612805565b9150509250925092565b612c5281612322565b82525050565b6000602082019050612c6d6000830184612c49565b92915050565b612c7c81612485565b8114612c8757600080fd5b50565b600081359050612c9981612c73565b92915050565b60008060408385031215612cb657612cb56122f8565b5b6000612cc48582860161234b565b9250506020612cd585828601612c8a565b9150509250929050565b60008060408385031215612cf657612cf56122f8565b5b6000612d048582860161234b565b9250506020612d158582860161234b565b9150509250929050565b600080600080600060a08688031215612d3b57612d3a6122f8565b5b6000612d498882890161234b565b9550506020612d5a8882890161234b565b9450506040612d6b88828901612381565b9350506060612d7c88828901612381565b925050608086013567ffffffffffffffff811115612d9d57612d9c6122fd565b5b612da9888289016128a6565b9150509295509295909350565b600060208284031215612dcc57612dcb6122f8565b5b6000612dda8482850161234b565b91505092915050565b7f455243313135353a2061646472657373207a65726f206973206e6f742061207660008201527f616c6964206f776e657200000000000000000000000000000000000000000000602082015250565b6000612e3f602a83612682565b9150612e4a82612de3565b604082019050919050565b60006020820190508181036000830152612e6e81612e32565b9050919050565b7f4e487b7100000000000000000000000000000000000000000000000000000000600052602260045260246000fd5b60006002820490506001821680612ebc57607f821691505b602082108103612ecf57612ece612e75565b5b50919050565b7f455243313135353a2063616c6c6572206973206e6f7420746f6b656e206f776e60008201527f6572206f7220617070726f766564000000000000000000000000000000000000602082015250565b6000612f31602e83612682565b9150612f3c82612ed5565b604082019050919050565b60006020820190508181036000830152612f6081612f24565b9050919050565b7f455243313135353a206163636f756e747320616e6420696473206c656e67746860008201527f206d69736d617463680000000000000000000000000000000000000000000000602082015250565b6000612fc3602983612682565b9150612fce82612f67565b604082019050919050565b60006020820190508181036000830152612ff281612fb6565b9050919050565b7f4e487b7100000000000000000000000000000000000000000000000000000000600052603260045260246000fd5b7f4e487b7100000000000000000000000000000000000000000000000000000000600052601160045260246000fd5b600061306282612360565b91507fffffffffffffffffffffffffffffffffffffffffffffffffffffffffffffffff820361309457613093613028565b5b600182019050919050565b7f4f776e61626c653a206e6577206f776e657220697320746865207a65726f206160008201527f6464726573730000000000000000000000000000000000000000000000000000602082015250565b60006130fb602683612682565b91506131068261309f565b604082019050919050565b6000602082019050818103600083015261312a816130ee565b9050919050565b7f4f776e61626c653a2063616c6c6572206973206e6f7420746865206f776e6572600082015250565b6000613167602083612682565b915061317282613131565b602082019050919050565b600060208201905081810360008301526131968161315a565b9050919050565b60008190508160005260206000209050919050565b60006020601f8301049050919050565b600082821b905092915050565b6000600883026131ff7fffffffffffffffffffffffffffffffffffffffffffffffffffffffffffffffff826131c2565b61320986836131c2565b95508019841693508086168417925050509392505050565b6000819050919050565b600061324661324161323c84612360565b613221565b612360565b9050919050565b6000819050919050565b6132608361322b565b61327461326c8261324d565b8484546131cf565b825550505050565b600090565b61328961327c565b613294818484613257565b505050565b5b818110156132b8576132ad600082613281565b60018101905061329a565b5050565b601f8211156132fd576132ce8161319d565b6132d7846131b2565b810160208510156132e6578190505b6132fa6132f2856131b2565b830182613299565b50505b505050565b600082821c905092915050565b600061332060001984600802613302565b1980831691505092915050565b6000613339838361330f565b9150826002028217905092915050565b61335282612677565b67ffffffffffffffff81111561336b5761336a6124d6565b5b6133758254612ea4565b6133808282856132bc565b600060209050601f8311600181146133b357600084156133a1578287015190505b6133ab858261332d565b865550613413565b601f1984166133c18661319d565b60005b828110156133e9578489015182556001820191506020850194506020810190506133c4565b868310156134065784890151613402601f89168261330f565b8355505b6001600288020188555050505b505050505050565b7f455243313135353a206d696e7420746f20746865207a65726f2061646472657360008201527f7300000000000000000000000000000000000000000000000000000000000000602082015250565b6000613477602183612682565b91506134828261341b565b604082019050919050565b600060208201905081810360008301526134a68161346a565b9050919050565b60006134b882612360565b91506134c383612360565b92508282019050808211156134db576134da613028565b5b92915050565b60006040820190506134f660008301856123d6565b61350360208301846123d6565b9392505050565b7f455243313135353a2069647320616e6420616d6f756e7473206c656e6774682060008201527f6d69736d61746368000000000000000000000000000000000000000000000000602082015250565b6000613566602883612682565b91506135718261350a565b604082019050919050565b6000602082019050818103600083015261359581613559565b9050919050565b7f455243313135353a207472616e7366657220746f20746865207a65726f20616460008201527f6472657373000000000000000000000000000000000000000000000000000000602082015250565b60006135f8602583612682565b91506136038261359c565b604082019050919050565b60006020820190508181036000830152613627816135eb565b9050919050565b7f455243313135353a20696e73756666696369656e742062616c616e636520666f60008201527f72207472616e7366657200000000000000000000000000000000000000000000602082015250565b600061368a602a83612682565b91506136958261362e565b604082019050919050565b600060208201905081810360008301526136b98161367d565b9050919050565b600060408201905081810360008301526136da8185612b3e565b905081810360208301526136ee8184612b3e565b90509392505050565b7f455243313135353a206275726e2066726f6d20746865207a65726f206164647260008201527f6573730000000000000000000000000000000000000000000000000000000000602082015250565b6000613753602383612682565b915061375e826136f7565b604082019050919050565b6000602082019050818103600083015261378281613746565b9050919050565b7f455243313135353a206275726e20616d6f756e7420657863656564732062616c60008201527f616e636500000000000000000000000000000000000000000000000000000000602082015250565b60006137e5602483612682565b91506137f082613789565b604082019050919050565b60006020820190508181036000830152613814816137d8565b9050919050565b7f455243313135353a2073657474696e6720617070726f76616c2073746174757360008201527f20666f722073656c660000000000000000000000000000000000000000000000602082015250565b6000613877602983612682565b91506138828261381b565b604082019050919050565b600060208201905081810360008301526138a68161386a565b9050919050565b600081519050919050565b600082825260208201905092915050565b60006138d4826138ad565b6138de81856138b8565b93506138ee818560208601612693565b6138f7816124c5565b840191505092915050565b600060a0820190506139176000830188612c49565b6139246020830187612c49565b61393160408301866123d6565b61393e60608301856123d6565b818103608083015261395081846138c9565b90509695505050505050565b60008151905061396b8161242c565b92915050565b600060208284031215613987576139866122f8565b5b60006139958482850161395c565b91505092915050565b60008160e01c9050919050565b600060033d11156139ca5760046000803e6139c760005161399e565b90505b90565b600060443d10613a5a576139df6122ee565b60043d036004823e80513d602482011167ffffffffffffffff82111715613a07575050613a5a565b808201805167ffffffffffffffff811115613a255750505050613a5a565b80602083010160043d038501811115613a42575050505050613a5a565b613a5182602001850186612505565b82955050505050505b90565b7f455243313135353a207472616e7366657220746f206e6f6e2d4552433131353560008201527f526563656976657220696d706c656d656e746572000000000000000000000000602082015250565b6000613ab9603483612682565b9150613ac482613a5d565b604082019050919050565b60006020820190508181036000830152613ae881613aac565b9050919050565b7f455243313135353a204552433131353552656365697665722072656a6563746560008201527f6420746f6b656e73000000000000000000000000000000000000000000000000602082015250565b6000613b4b602883612682565b9150613b5682613aef565b604082019050919050565b60006020820190508181036000830152613b7a81613b3e565b9050919050565b600060a082019050613b966000830188612c49565b613ba36020830187612c49565b8181036040830152613bb58186612b3e565b90508181036060830152613bc98185612b3e565b90508181036080830152613bdd81846138c9565b90509695505050505050565b7f5061757361626c653a206e6f7420706175736564000000000000000000000000600082015250565b6000613c1f601483612682565b9150613c2a82613be9565b602082019050919050565b60006020820190508181036000830152613c4e81613c12565b9050919050565b7f5061757361626c653a2070617573656400000000000000000000000000000000600082015250565b6000613c8b601083612682565b9150613c9682613c55565b602082019050919050565b60006020820190508181036000830152613cba81613c7e565b905091905056fea2646970667358221220eef527b6392a4985754bf4b9e5d6cf025342fa0bd2a60933a9c4acb3960f6c6664736f6c63430008140033",
  "linkReferences": {},
  "deployedLinkReferences": {}
}